:020000040800F2
:1000000000000220AD020008B5020008B902000895
:1000100001030008050300084D030008000000006C
:10002000000000000000000000000000CD240008D7
:1000300099030008000000005D2500082D49000814
:10004000011F0008011F0008011F0008011F000810
:10005000011F0008011F0008011F0008011F000800
:10006000011F0008011F0008011F0008011F0008F0
:10007000011F0008011F0008011F0008011F0008E0
:10008000011F0008011F0008011F000800000000F8
:10009000000000000000000000000000011F000838
:1000A000011F0008011F0008011F0008011F0008B0
:1000B000011F0008011F0008011F0008011F0008A0
:1000C000011F0008011F0008011F0008011F000890
:1000D000011F0008011F0008011F000800000000A8
:1000E00039490008011F0008011F00080000000036
:1000F000000000000000000000000000011F0008D8
:1001000000000000011F0008011F0008011F000877
:1001100000000000000000000000000000000000DF
:10012000011F0008011F0008011F0008011F00082F
:10013000011F000800000000000000000000000097
:10014000000000000000000000000000011F000887
:10015000011F0008011F0008011F0008011F0008FF
:10016000011F0008011F000800000000000000003F
:10017000000000000000000000000000000000007F
:1001800000000000011F0008000000000000000047
:10019000011F0008011F000800B583B001F026FE12
:1001A000304B314A1360314A1360314B314A03E01E
:1001B00011681960043304322F498B42F8D32A4B5B
:1001C0001A682E4B9A4204D1284B1A682C4B9A423B
:1001D00000D0FEE7234B2B4A13602B4A13602B4BB6
:1001E00002E000221A600433294A9342F9D3254BD6
:1001F0001B6813B9244B1B6803B1FEE701F004FE32
:1002000001A8694601F0CCFD224B234DED1AAD103B
:10021000002404E01F4B53F8243098470134A542D2
:10022000F8DC1E4B1E4DED1AAD10002404E01B4BF4
:1002300053F8243098470134A542F8DC019800991E
:1002400004F042FA0546174B174CE41AA41004E0D8
:10025000013C144B53F824309847002CF8DC284616
:1002600001F07AFDBABADECA000000208C0000203E
:1002700000000020287C00089000002078563412EE
:100280003254769890000020D0400020900000204A
:10029000D4400020D8030008D8030008D803000881
:1002A000D8030008D8030008D803000808B5FFF7F2
:1002B00073FF00BF00BEFEE71EF0040F0CBFEFF39C
:1002C0000880EFF309807146364A10472DE9F04166
:1002D00082B007468846084C666BA56BA46A07483F
:1002E00001F066FDCDF800803846214632462B46A7
:1002F00001F08EFD00BEFEE700ED00E0E0780008B2
:1003000000BEFEE71EF0040F0CBFEFF30880EFF312
:1003100009807146244A10472DE9F04182B0074612
:100320008846084C666BA56BA46A074801F040FD3F
:10033000CDF800803846214632462B4601F068FD54
:1003400000BEFEE700ED00E0F07800081EF0040FAC
:100350000CBFEFF30880EFF309807146134A104792
:100360002DE9F04182B007468846084C666BA56BC4
:10037000A46A074801F01CFDCDF8008038462146EC
:1003800032462B4601F044FD00BEFEE700ED00E0E2
:10039000FC78000800BEFEE700BEFEE700BEFEE7F8
:1003A00070470000CD02000819030008610300082F
:1003B000287C00080000002090000020287C000815
:1003C000000000100000001090000020D440002029
:0803D000000000100000001005
:1003D80010B5044601F052FA064BA3FB0020800931
:1003E80000F010FA4FF0FF302146002200F0CCF95F
:1003F800002010BDD34D621008B50B4B1A6842F4AB
:1004080000721A601A6842F480621A601A6842F42C
:1004180080721A60032000F0A5F90020FFF7D8FFCA
:1004280004F0CEF9002008BD003C0240024B1A68D7
:1004380001321A60704700BF94000020014B186811
:10044800704700BF9400002010B582B00190FFF7FC
:10045800F5FF0446FFF7F2FF001B019B9842F9D312
:1004680002B010BD10B44D4B5A6822F440325A60A5
:10047800596842680A435A6003685A6822F48072CD
:100488005A6003685968026941EA02225A6003689F
:100498005A6822F040725A600368596882680A43B1
:1004A8005A6003689A6822F400629A60036899683F
:1004B800C2680A439A60C36A394A934214D00368EF
:1004C8009A6822F070629A6003689968C26A0A435F
:1004D8009A6003689A6822F040529A6003689968A3
:1004E800026B0A439A6009E003689A6822F0706216
:1004F8009A6003689A6822F040529A6003689A6882
:1005080022F002029A6003689968826941EA42020D
:100518009A60436AC3B103685A6842F400625A6039
:1005280003685A6822F460425A6003685968826A0C
:10053800013A4FF4604494FAA4F4B4FA84F4E4B2AF
:10054800A2400A435A6004E003685A6822F4006231
:100558005A600368DA6A22F47002DA620368D96AB8
:10056800026A013A41EA0252DA6203689A6822F49E
:1005780000729A6003689968C26941EA42229A60E7
:1005880003689A6822F480629A6003689A684169ED
:1005980042EA81229A605DF8044B704700230140CB
:1005A8000100000F10B50446B8B190F83D3013F0C3
:1005B800FF0F04D1002380F83C3004F00DF902232A
:1005C80084F83D302046FFF74DFF002020640123CA
:1005D80084F83D3084F83C0010BD012010BD00BFF8
:1005E80030B482B00023019390F83C30012B00F026
:1005F800AC80012380F83C300B68092B16D90268BF
:10060800D4689BB203EB43031E3B072505FA03F3AB
:1006180024EA0303D3600368DD688C680A8802EB68
:1006280042021E3A94402C43DC6013E002681469CD
:100638009BB203EB4303072505FA03F324EA0303FC
:10064800136103681D698C680A8802EB42029440B2
:100658002C431C614B68062B16D80268546B03EBBD
:100668008303053B1F2505FA03F324EA03035363B9
:1006780003685C6B0D884A6802EB8202053A05FA4A
:1006880002F222435A632EE00C2B16D80268146B30
:1006980003EB8303233B1F2505FA03F324EA030333
:1006A800136303681C6B0D884A6802EB8202233AC5
:1006B80005FA02F222431A6315E00268D46A03EBD2
:1006C8008303413B1F2505FA03F324EA0303D3629E
:1006D8000368DC6A0D884A6802EB8202413A05FA2F
:1006E80002F22243DA6203681A4A934207D10B687E
:1006F800122B04D1184B5A6842F480025A600368DE
:10070800144A93421CD10B68103B012B18D8124B8A
:100718005A6842F400025A600B68102B10D10F4B34
:100728001A680F4BA3FB02139B0C03EB83035B00BC
:10073800019302E0019B013B0193019B002BF9D13E
:10074800002380F83C30184600E0022002B030BC9C
:10075800704700BF00200140002301400C0000202A
:1007680083DE1B4300F00700064AD36823F4E063E6
:100778001B041B0C43EA002343F0BF6343F400331C
:10078800D360704700ED00E030B4164BDB68C3F36C
:100798000223C3F10705042D28BF04251C1D062CC0
:1007A80001D9033B00E00023012404FA05F5013DCB
:1007B8002940994004FA03F3013B1A400A430028F0
:1007C80006DA00F00F001201D2B2074B1A5407E004
:1007D8001201D2B200F1604000F5614080F80023B8
:1007E80030BC704700ED00E014ED00E0420900F075
:1007F8001F00012303FA00F0014B43F82200704761
:1008080000E100E00138B0F1807F0AD2064B586061
:10081800F021064A82F823100020986007221A6007
:1008280070470120704700BF10E000E000ED00E0D5
:10083800042805D1054B1A6842F004021A60704773
:10084800024B1A6822F004021A60704710E000E0B8
:100858002DE9F00183B00023C3E01E4601229A402F
:100868000C681440944240F0BB804D68022D01D0C2
:10087800122D14D1DD08083550F8257003F0070C47
:100888004FEA8C0C4FF00F0808FA0CF827EA080812
:100898000F6907FA0CF747EA080740F82570076858
:1008A8005D004FF0030C0CFA05FC6FEA0C0C0CEA27
:1008B80007084F6807F00307AF4047EA08070760D3
:1008C8004F6807F1FF38B8F1010F03D9112F01D094
:1008D800122F11D187680CEA0708CF68AF4047EAA2
:1008E80008078760476827EA02024F68C7F30017BE
:1008F80007FA06F632434260C2680CEA020C8A68BC
:10090800AA4042EA0C02C2604A6812F0805F67D0CF
:10091800374A556C45F480455564526C02F4804260
:100928000192019A9A08961C324D55F8267003F0E8
:100938000305AD000F26AE4027EA06062E4FB84243
:1009480019D007F58067B84213D007F58067B84219
:100958000DD007F58067B84207D007F58067B84221
:1009680001D1042708E0052706E0032704E0022751
:1009780002E0012700E0002707FA05F535430232B7
:100988001C4E46F822501D4A1568E24302EA050645
:100998004F6817F4803F01D044EA0506174D2E60D2
:1009A8006D6802EA05064F6817F4003F01D044EA73
:1009B8000506124D6E60AD6802EA05064F6817F429
:1009C800801F01D044EA05060C4DAE60ED682A4050
:1009D8004E6816F4001F01D044EA0502074CE26095
:1009E80001330F2B7FF639AF03B0BDE8F001704734
:1009F800003802400038014000000240003C01403D
:100A08004369594041617047704700BF08B5044BBE
:100A18005B69034203D0024B5861FFF7F5FF08BD3D
:100A2800003C0140F8B504460D461646FFF706FDA2
:100A3800074626E02368596911F4806F10D01A68B8
:100A480042F400721A6023686FF480625A610423CA
:100A5800A363012084F83500002384F83430F8BDFE
:100A6800B6F1FF3F0DD026B1FFF7E8FCC01BB0423E
:100A780007D9012384F83530002384F83430032063
:100A8800F8BDC5F30743012B08D123685B6925EA44
:100A980003039BB2003318BF012307E023689B6957
:100AA80025EA03039BB2003318BF0123002BC1D1F1
:100AB8000020F8BD2DE9F04106460C4690461D463B
:100AC800FFF7BCFC0746B8F1000F12D03DE0B5F1C6
:100AD800FF3F0ED025B1FFF7B1FCC01BA84208D9D3
:100AE800012386F83530002386F834300320BDE82A
:100AF800F081C4F30743012B08D133685B6924EA0A
:100B080003039BB2003318BF012307E033689B69D6
:100B180024EA03039BB2003318BF0123002BD6D16C
:100B28000020BDE8F081B5F1FF3F0ED025B1FFF7F9
:100B380085FCC01BA84208D9012386F8353000235C
:100B480086F834300320BDE8F081C4F30743012B55
:100B580009D133685B6924EA03039BB2D3F101032B
:100B680038BF002308E033689B6924EA03039BB27B
:100B7800D3F1010338BF0023002BD4D10020BDE8F6
:100B8800F08100BF2DE9F04782B005468A469046BD
:100B980099460A9E0468276847F4807727604FF0D3
:100BA800011100223346FFF785FF002835D12B6855
:100BB8000AF0FE021A6128461D493246FFF732FF45
:100BC80020B1AB6B042B2AD101212DE02B685A6987
:100BD80001929B690193019B2846164900223346DE
:100BE800FFF768FF0146E0B9B9F1010F04D12B689E
:100BF8005FFA88F21A6117E02B684FEA18221A6127
:100C080028460C4900223346FFF754FF014650B9E5
:100C18002B685FFA88F21A6106E0032104E00321D9
:100C280002E0032100E00321084602B0BDE8F08796
:100C380002000100800001002DE9F04782B004465F
:100C4800884691469A460A9E05682B6843F4806355
:100C58002B6005682F6847F480772F604FF00111EB
:100C680000223346FFF726FF002859D123685FFA90
:100C780088F808F0FE021A61204632493246FFF72A
:100C8800D1FE20B1A36B042B4CD1012355E023687E
:100C98005A6901929B690193019B20462A490022C7
:100CA8003346FFF707FF00283ED1BAF1010F04D100
:100CB80023685FFA89F21A610EE023684FEA192265
:100CC8001A612046204900223346FFF7F3FE68BB2D
:100CD80023685FFA89F21A6120461B4900223346CD
:100CE800FFF7E8FE20BB23681A6842F480721A6096
:100CF80020464FF0011100223346FFF7DBFEC8B94A
:100D0800236848F001021A6120460E493246FFF76F
:100D180089FE034688B1A36B042B0DD101230CE097
:100D280003230AE0032308E0032306E0032304E087
:100D3800032302E0032300E00323184602B0BDE8C2
:100D4800F08700BF020001008000010038B50446AA
:100D580000287FD090F8353013F0FF0F04D100231E
:100D680080F8343003F06CFD022384F835302368B2
:100D78001A6822F001021A6000F09CFD364BA3FBB2
:100D880000239B0C2268536021686268334DAA4295
:100D980001D8013308E04FF4967202FB03F3304A9E
:100DA800A2FB03539B0901330B62226863682B493A
:100DB8008B4208D85B00B0FBF3F0C0F30B03032BA6
:100DC8002DD804202BE0A16851B903EB4305B0FBF3
:100DD800F5F5C5F30B05D5F1010538BF00250BE086
:100DE80003EB830505EB8505B0FBF5F5C5F30B05AE
:100DF800D5F1010538BF002585B931B903EB4303A7
:100E0800B0FBF3F040F4004009E003EB830303EB8D
:100E18008303B0FBF3F040F4404000E00120D061D0
:100E28002368E169226A0A431A6023682169E26833
:100E38000A439A6023686169A2690A43DA602368F1
:100E48001A6842F001021A600020A063012384F8A6
:100E5800353038BD012038BD83DE1B43A086010034
:100E6800D34D62102DE9F04182B0044688461746FA
:100E78001E46BDF8245090F83500C0B2012865D14F
:100E88000898002864D0002D64D0204638490122F3
:100E980042F21073FFF70EFE00285DD194F834304B
:100EA800012B5BD0012384F8343023681A6822F4BC
:100EB80000621A60322384F835300023A3630A994C
:100EC8000091204641463A463346FFF75BFE38B369
:100ED800A36B042B04D1002384F83430012342E0AF
:100EE800002384F8343003233DE0204621490022C2
:100EF8000A9BFFF7DFFD002832D122680898431CBF
:100F080001781161013DADB22268516911F0040FF9
:100F180005D025B1831C41781161013DADB208931C
:100F2800002DE2D12046134900220A9BFFF7C2FD9B
:100F38000346B8B92268116841F4007111600122B2
:100F480084F83520002284F834200CE002230AE0DB
:100F5800012308E0012306E0022304E0022302E063
:100F6800032300E00323184602B0BDE8F08100BF68
:100F780002001000800001002DE9F04186B004460F
:100F8800884617461D46BDF8346090F83500C0B253
:100F9800012840F0E8800C99002900F0E680002E36
:100FA80000F0E58020467B49012242F21073FFF7EA
:100FB80081FD002840F0DD8094F83430012B00F0EA
:100FC800DA80012384F8343023681A6822F4006236
:100FD8001A60422384F835300023A3630E9A0092E6
:100FE800204641463A462B46FFF726FE054660B1A5
:100FF800A36B042B04D1002384F834300125C5E009
:10100800002384F834300325C0E0012E0FD1236873
:101018001A6822F480621A6023685A6903929A69EE
:101028000392039A1A6842F400721A6092E0022E40
:1010380010D123681A6822F480621A6023681A683B
:1010480042F400621A6023685A6904929B69049307
:10105800049B7FE023685A6905929B690593059B69
:1010680078E0032E5AD8012E10D120464A49002292
:101078000E9BFFF71FFD00287FD123681B690C9981
:101088000B70013EB6B201310C9163E0022E19D10A
:101098002046424900220E9BFFF70CFD00286ED126
:1010A80023681A6842F400721A6023681A690C9B54
:1010B80003F8022B226812690C994A70023EB6B2F4
:1010C8000C9347E02046354900220E9BFFF7F2FCBF
:1010D800002856D123681A6822F480621A602368AF
:1010E8001B690C9A1370013EB6B220462B490022A8
:1010F8000E9BFFF7DFFC002845D123681A6842F4ED
:1011080000721A6023681B690C994B7023681B696D
:101118008B70023EB6B203310C911BE020461E498B
:1011280000220E9BFFF7C6FC78BB0C9A511C236863
:101138001B691370013EB6B223685A6912F0040F96
:1011480007D01B690C994B70013EB6B202310C9165
:1011580000E00C91002E84D1012384F8353000235F
:1011680084F8343012E0022510E001250EE0012554
:101178000CE002250AE0022508E0032506E0032525
:1011880004E0032502E0032500E00325284606B015
:10119800BDE8F081020010004000010004000100D9
:1011A80030B583B00446036813F0010F55D0AA4B3D
:1011B8009B6803F00C03042B0AD0A74B9B6803F031
:1011C8000C03082B0DD1A44B5B6813F4800F08D0D7
:1011D800A14B1B6813F4003F3FD06368002B3CD140
:1011E8009FE100229D4B1A70FFF728F9054607E09A
:1011F800FFF724F9401B41F28833984200F29381AB
:10120800954B1B6813F4003FF2D12279934B1A7067
:1012180063688BB1FFF712F9054607E0FFF70EF98F
:10122800401B41F28833984200F27F818A4B1B6849
:1012380013F4003FF2D010E0FFF700F9054607E08D
:10124800FFF7FCF8401B41F28833984200F26F81A7
:10125800814B1B6813F4003FF2D1236813F0020F8F
:101268005CD07D4B9B6813F00C0F0AD07A4B9B68BF
:1012780003F00C03082B1CD1774B5B6813F4800F29
:1012880017D1754B1B6813F0020F03D0E368012BCD
:1012980040F04F81704B196821F0F8012269F8205D
:1012A80090FAA0F0B0FA80F0C0B282400A431A6007
:1012B80034E0E36803B30122694B1A60FFF7BEF814
:1012C800054605E0FFF7BAF8401B642800F23381B1
:1012D800614B1B6813F0020FF4D05F4B196821F0C3
:1012E800F8012269F82090FAA0F0B0FA80F0C0B2B4
:1012F80082400A431A6011E00022594B1A60FFF736
:101308009DF8054605E0FFF799F8401B642800F2B0
:101318001481514B1B6813F0020FF4D1236813F0AA
:10132800080F26D0636993B101224E4B1A60FFF76C
:1013380085F8054605E0FFF781F8401B642800F2B0
:10134800FE80454B5B6F13F0020FF4D011E00022D2
:10135800444B1A60FFF772F8054605E0FFF76EF890
:10136800401B642800F2ED803B4B5B6F13F0020FCB
:10137800F4D1236813F0040F59D0374B1A6C42F09C
:1013880080521A641B6C03F080530193019B364B07
:101398001A6842F480721A60FFF750F8054605E0B3
:1013A800FFF74CF8401B642800F2CD802E4B1B68D9
:1013B80013F4807FF4D000222C4B1A70FFF73EF80C
:1013C800054607E0FFF73AF8401B41F28833984298
:1013D80000F2BB80204B1B6F13F0020FF2D1227A70
:1013E800224B1A70A3688BB1FFF728F8054607E06F
:1013F800FFF724F8401B41F28833984200F2A78097
:10140800154B1B6F13F0020FF2D010E0FFF716F820
:10141800054607E0FFF712F8401B41F2883398426F
:1014280000F297800C4B1B6F13F0020FF2D1A369E7
:10143800002B00F09080084A926802F00C02082AFB
:1014480000F08B80022B59D10022094B1A60FEF75D
:10145800F5FF054613E000BF00380240023802409D
:1014680000004742800E474200700040703802403A
:1014780060004742FEF7E2FF401B64286FD83B4BF1
:101488001B6813F0007FF5D1E269236A1A43636A87
:1014980047F6C07191FAA1F1B1FA81F1C9B28B4056
:1014A8001A43A36A5B08591E4FF4403393FAA3F317
:1014B800B3FA83F3DBB201FA03F31A43E16A4FF09C
:1014C800706393FAA3F3B3FA83F3DBB201FA03F37D
:1014D8001A43264B5A600122254B1A60FEF7AEFFCD
:1014E800044604E0FEF7AAFF001B642839D81F4B06
:1014F8001B6813F0007FF5D0002035E000221C4B5C
:101508001A60FEF79BFF044604E0FEF797FF001BF6
:10151800642828D8154B1B6813F0007FF5D10020EC
:1015280022E0012020E003201EE003201CE003202D
:101538001AE0012018E0032016E0032014E003203D
:1015480012E0032010E003200EE003200CE003204B
:101558000AE0032008E0002006E0012004E0032060
:1015680002E0032000E0032003B030BD0038024051
:101578006000474270B504460D46964B1B6803F061
:101588000F038B4278D2CAB2924B1A701B6803F0D1
:101598000F038B4240F0FE80036813F0020F06D061
:1015A8008D4B996821F0F00182680A439A6023689C
:1015B80013F0010F00F0D2806368012B05D1864A31
:1015C800126812F4003F0FD1E6E09A1E012A05D8EE
:1015D800814A126812F0007F06D1DFE07E4A126865
:1015E80012F0020F00F0DC807B4A916821F00301C1
:1015F8000B439360FEF722FF05466368012B0FD16A
:1016080007E0FEF71BFF401B41F28833984200F2C7
:10161800C980714B9B6803F00C03042BF1D19DE04A
:10162800022B0FD107E0FEF709FF401B41F2883378
:10163800984200F2B980684B9B6803F00C03082BB2
:10164800F1D18BE0032B11D1634B9B68FEF7F6FEBB
:10165800401B41F288339842F6D9A7E0FEF7EEFE28
:10166800401B41F28833984200F2A2805A4B9B6893
:1016780013F00C0FF2D171E0036813F0020F06D0DB
:10168800554B996821F0F00182680A439A602368F3
:1016980013F0010F5AD06368012B05D14E4A126826
:1016A80012F4003F0ED185E09A1E012A05D84A4A55
:1016B800126812F0007F05D17EE0474A126812F0E6
:1016C800020F7BD0444A916821F003010B439360D9
:1016D800FEF7B4FE06466368012B0ED106E0FEF75E
:1016E800ADFE801B41F28833984269D83A4B9B681B
:1016F80003F00C03042BF2D128E0022B0ED106E0F4
:10170800FEF79CFE801B41F2883398425AD8324B30
:101718009B6803F00C03082BF2D117E0032B10D1C0
:101728002D4B9B68FEF78AFE801B41F28833984256
:10173800F6D949E0FEF782FE801B41F288339842D1
:1017480044D8254B9B6813F00C0FF3D1EAB2214B18
:101758001A701B6803F00F03AB4239D1236813F0EA
:10176800040F06D01C4B996821F4E051E2680A4343
:101778009A60236813F0080F07D0174B9A6822F471
:101788006042216942EAC1029A600020FEF720FE09
:10179800002070BD012070BD012070BD012070BD0A
:1017A800012070BD032070BD032070BD032070BDF3
:1017B800032070BD012070BD012070BD012070BDE7
:1017C800032070BD032070BD032070BD032070BDD1
:1017D800012070BD003C024000380240244B9B6849
:1017E80003F00C03042B40D0082B01D0214870478C
:1017F8001F4B586800F03F005B6813F4800F11D04E
:101808001D4BB3FBF0F01A4B5A6847F6C0731A40E9
:1018180093FAA3F3B3FA83F3DBB222FA03F303FBDD
:1018280000F010E0134BB3FBF0F0114B5A6847F689
:10183800C0731A4093FAA3F3B3FA83F3DBB222FA24
:1018480003F303FB00F00A4B5A6802F440324FF4EA
:10185800403393FAA3F3B3FA83F3DBB222FA03F328
:1018680001335B00B0FBF3F070470348704700BFDB
:10187800003802400024F40000127A0008B5FFF78F
:10188800ADFF094B9A6802F0F002F02393FAA3F334
:10189800B3FA83F3DBB222FA03F3044AD35CD840E9
:1018A800034B186008BD00BF00380240B477000839
:1018B8000C00002008B5FFF7E1FF084B9A6802F416
:1018C800E0524FF4E05393FAA3F3B3FA83F3DBB295
:1018D80022FA03F3024AD35CD84008BD003802401C
:1018E800B477000808B5FFF7C9FF084B9A6802F4F7
:1018F80060424FF4604393FAA3F3B3FA83F3DBB285
:1019080022FA03F3024AD35CD84008BD00380240EB
:10191800B47700082DE9F04104460368196921F4F9
:101928004051C2680A431A610268D36823F4164317
:1019380023F00C0380682169084361690843E16961
:1019480001430B43D3602368596921F44071A269AC
:101958000A435A61E369B3F5004F74D1256803F16E
:10196800804303F510439D4203D003F580639D42F5
:1019780034D1FFF7B7FF00EB800000EB800063680D
:101988005B00B0FBF3F7694EA6FB07277F093F0111
:10199800FFF7A8FF00EB800000EB800063685B00A6
:1019A800B0FBF3F8FFF79EFF00EB800000EB800030
:1019B80063685B00B0FBF3F3A6FB03235B096422B7
:1019C80002FB13884FEA081808F13208A6FB08360C
:1019D800C6F343163743AF60BDE8F081FFF76AFFEF
:1019E80000EB800000EB800063685B00B0FBF3F75E
:1019F8004E4EA6FB07277F093F01FFF75BFF00EB71
:101A0800800000EB800063685B00B0FBF3F8FFF731
:101A180051FF00EB800000EB800063685B00B0FBC7
:101A2800F3F3A6FB03235B09642202FB13884FEA46
:101A3800081808F13208A6FB0836C6F343163743E0
:101A4800AF60BDE8F0812568394B9D4203D003F5AE
:101A580080639D4234D1FFF745FF00EB800000EB27
:101A6800800063689B00B0FBF3F7304EA6FB0727A6
:101A78007F093F01FFF736FF00EB800000EB800095
:101A880063689B00B0FBF3F8FFF72CFF00EB8000C6
:101A980000EB800063689B00B0FBF3F3A6FB032315
:101AA8005B09642202FB13884FEA081808F1320820
:101AB800A6FB0836C6F343163743AF60BDE8F0818E
:101AC800FFF7F8FE00EB800000EB800063689B00E6
:101AD800B0FBF3F7154EA6FB07277F093F01FFF779
:101AE800E9FE00EB800000EB800063689B00B0FB20
:101AF800F3F8FFF7DFFE00EB800000EB800063687F
:101B08009B00B0FBF3F0A6FB00304009642303FB05
:101B180010884FEA081808F13208A6FB0826C6F311
:101B280043163743AF60BDE8F08100BF1F85EB5116
:101B3800001001402DE9F04106460C4690461D462E
:101B4800FEF77CFC0746B8F1000F26D053E0B5F14C
:101B5800FF3F22D025B1FEF771FCC01BA8421CD95B
:101B68003368DA6822F08002DA603368DA6822F0D3
:101B78002002DA603368DA6822F48072DA60336847
:101B88005A6922F001025A61012386F8393000238C
:101B980086F838300320BDE8F08133681B6823409D
:101BA800A342D4D10020BDE8F081B5F1FF3F22D097
:101BB80025B1FEF743FCC01BA8421CD93368DA687C
:101BC80022F08002DA603368DA6822F02002DA60F4
:101BD8003368DA6822F48072DA6033685A6922F06E
:101BE80001025A61012386F83930002386F838301B
:101BF8000320BDE8F08133681B682340A342D4D09A
:101C08000020BDE8F08100BF10B5044648B390F845
:101C1800393013F0FF0F04D1002380F8383002F078
:101C280039FE022384F839302368DA6822F4005236
:101C3800DA602046FFF76EFE23681A6922F49042A4
:101C48001A6123685A6922F02A025A612368DA68FD
:101C580042F40052DA600020E063012384F839304E
:101C680010BD012010BD00BF70B504460D461E46CC
:101C780090F83930DBB2012B01D0222B59D1002D3D
:101C880059D0002A59D094F83830012B57D0012365
:101C980084F838300023E36394F83930DBB2222B20
:101CA80003D1322384F8393002E0122384F8393022
:101CB800A284E28423E0013AE284A268B2F5805F5C
:101CC80012D12046802100223346FFF733FF002837
:101CD80037D123682A88C2F308025A6023690BB9EE
:101CE80002350CE001350AE0204680210022334607
:101CF800FFF720FF38BB23682A785A600135E28C49
:101D0800002AD8D1204640213346FFF713FF034667
:101D1800D8B994F83920D2B2322A03D1222284F8D1
:101D2800392002E0012284F83920002284F8382082
:101D38000CE002230AE0012308E0012306E0022365
:101D480004E0032302E0032300E00323184670BDE8
:101D5800FEE700BF08B50D4B1B6813B90C4A0B4BC7
:101D68001A600A4B1B68033020F003001844094A24
:101D7800904206D905F0BCF80C2303604FF0FF3001
:101D880008BD024A1060184608BD00BF9800002030
:101D9800D440002000FC012001230360014B0B60AC
:101DA800704700BF040000200FB400B583B004AB37
:101DB80053F8042B01930848802105F0E5FB011E28
:101DC80003DD054800F00AF80146084603B05DF84F
:101DD80004EB04B0704700BFA00000204FF0FF30B4
:101DE800704700BF08B500F089F8044BD3F8882085
:101DF80042F47002C3F8882008BD00BF00ED00E07F
:101E080008B500F0A1F808BDF8B504460D46174618
:101E18001E462648FFF7C8FF25482168FFF7C4FF7C
:101E280024486168FFF7C0FF2348A168FFF7BCFF9B
:101E38002248E168FFF7B8FF21482169FFF7B4FF9E
:101E480020486169FFF7B0FF1F48A169FFF7ACFFA1
:101E58001E48E169FFF7A8FF1D48FFF7A5FF1D48C9
:101E68002946FFF7A1FF1C4CE16A1C48FFF79CFFBD
:101E7800216B1B48FFF798FFE16B1A48FFF794FFA7
:101E880015F0800F03D018483946FFF78DFF15F479
:101E9800004F03D015483146FFF786FF1448FFF777
:101EA80083FF14480699FFF77FFFF8BDC477000841
:101EB800D4770008E4770008F4770008047800086D
:101EC800147800082478000834780008447800085A
:101ED800547800086078000800ED00E07078000889
:101EE8008078000890780008A0780008B07800088A
:101EF800C0780008C8780008FFF7FEBF0F4AD2F87C
:101F0800883043F47003C2F888300D4B196841F0EB
:101F18000101196000209860196821F0847121F48A
:101F28008031196007495960196821F480211960C6
:101F3800D8604FF000639360704700BF00ED00E089
:101F48000038024010300024224B9B6803F00C0339
:101F5800042B07D0082B09D0002B2DD11E4A1F4B6C
:101F68001A602CE01E4A1D4B1A6028E0194B59686C
:101F78005B6803F03F0311F4800F09D0184AB2FBE5
:101F8800F3F3144A5268C2F3881202FB03F208E022
:101F9800114AB2FBF3F30F4A5268C2F3881202FBEC
:101FA80003F20C4B5B68C3F3014301335B00B2FBE4
:101FB800F3F20A4B1A6002E0074A084B1A60054B15
:101FC8009B68C3F30313074AD15C044B1A68CA40E1
:101FD8001A607047003802400024F4000C0000200A
:101FE80040787D010C790008842801D003307047BF
:101FF80000207047EFF30580003018BF01207047BC
:1020080008B501F063F8002008BD00BF2DE9F041D4
:1020180086B00D46D0F8048007680669B0F9080054
:10202800FFF7E2FF009005AB0193002402940394AC
:1020380040463946B2B22B4600F0AEFF012801D126
:10204800059800E0002006B0BDE8F08108B508B9A1
:102058000120FFE701F08AF9002008BD70B50546A8
:102068004668033626F00306142000F029F90446D2
:1020780038B32B688360C66000230361286800F0CA
:102088001FF96060C8B1286800FB06F000F018F975
:10209800206028B909E062680021D154013300E0CA
:1020A80000232A689A42F6D80BE0606800F05AF9D3
:1020B800204600F057F9002403E0204600F052F9CA
:1020C8000024204670BD00BF70B50446FFF792FF9C
:1020D80050B1EFF311854FF0500383F31188BFF32C
:1020E8006F8FBFF34F8F02E000F0FCF9002500224C
:1020F80011E023691344994200D800236168C81885
:10210800C95C39B9012202702268E66803FB062619
:10211800236104E00132A1689142EAD80026FFF762
:1021280069FF10B185F3118801E000F0FDF9304630
:1021380070BD00BF034698B1A1B102688A4213D8A6
:10214800891AC068B1FBF0F200FB121272B9B1FB38
:10215800F0F19A688A420BD95B680020585470479E
:10216800802070478020704780207047802070470B
:102178008020704708B500680421002200F0CAFBDF
:1021880008BD00BF30B585B0054601910023039313
:10219800144602B90124FFF72DFF98B1284601A97A
:1021A80003AA002300F0ACFC012815D1039BABB1B6
:1021B8004FF080520C4B1A60BFF34F8FBFF36F8FF5
:1021C80000200EE0284601A92246002300F0D6FB95
:1021D800012805D0FF2004E0FF2002E0002000E0F5
:1021E800002005B030BD00BF04ED00E070B584B03C
:1021F80004460D461646029141B904AB802243F8C5
:10220800102D93E8070084E8070035E000230393C6
:10221800B2F1FF3F02D00AB102B90126FFF7EAFE88
:10222800B0B1284601A903AA00F09CFD012802D1FB
:102238001023009301E000230093039BC3B14FF0E8
:1022480080520F4B1A60BFF34F8FBFF36F8F0FE0B1
:10225800284601A93246002300F0BEFC012802D11D
:102268001023009304E00EB9002300E040230093FC
:102278009DE8070084E80700204604B070BD00BF51
:1022880004ED00E008B501F007FA012801D000F0DC
:1022980091F908BD074B23F00703074A1360002094
:1022A8005060064A43F6F8315160106059601A6070
:1022B800704700BF30010020200100202C3D002085
:1022C80070B5044600F03CFF224B1B6823B9FFF7AA
:1022D800E1FF01221F4B1A6034B1083414F0070FD4
:1022E80002D024F007040834621E43F6F6339A42FB
:1022F80028D819490B6801E0194613465A68A242C2
:1023080002D21A68002AF7D1144A93421CD00E68E8
:1023180008361A680A605A68121B102A0CD918194C
:1023280042605C6045680C4900E011460A685468E0
:10233800AC42FAD3026008605968094B1A68521A0D
:102348001A6002E0002600E0002600F093FF304605
:1023580070BD00BF283D0020200100202C3D00203A
:102368001000002070B50546B8B1A0F1080600F0CD
:10237800E7FE55F8044C094A00E01A461368596804
:10238800A142FAD345F8083C166055F8041C044BE2
:102398001A680A441A6000F06DFF70BD2001002021
:1023A8001000002000F1080343604FF0FF32826004
:1023B800C360036100230360704700BF002303610B
:1023C800704700BF43684B609A688A609A6851609A
:1023D80099600861036801330360704730B40D6881
:1023E800B5F1FF3F01D1026907E000F1080200E002
:1023F8001A4653681C68AC42FAD953684B60996016
:102408008A605160086103680133036030BC70471B
:1024180003694268816891608268416851605A68BE
:10242800824201D182685A6000220261186801382C
:10243800186070470B4B1B68B3F1FF3F08D04FF093
:10244800500383F31188BFF36F8FBFF34F8FFEE7FD
:102458004FF0500383F31188BFF36F8FBFF34F8F93
:10246800FEE700BF1400002006480068006880F3FB
:10247800088862B661B6BFF34F8FBFF36F8F00DF76
:1024880000BF000008ED00E0DFF80C00016841F42F
:10249800700101607047000088ED00E04FF0807324
:1024A80040F8043C40F8081C054B40F80C3C40F848
:1024B800202C6FF0020340F8243C4438704700BFDA
:1024C8003D240008064B19680868B0E8F04F80F30F
:1024D8000988BFF36F8F4FF0000080F311887047B1
:1024E800F83D00204FF0500383F31188BFF36F8F3E
:1024F800BFF34F8F0A4A136801331360012B0DD1C4
:10250800084B1B6813F0FF0F08D04FF0500383F3FC
:102518001188BFF36F8FBFF34F8FFEE7704700BF7F
:102528001400002004ED00E0094B1B6843B94FF08C
:10253800500383F31188BFF36F8FBFF34F8FFEE70C
:10254800013B034A13600BB983F31188704700BF3E
:1025580014000020EFF30980BFF36F8F144B1A6843
:102568001EF0100F08BF20ED108A20E9F04F106010
:102578004DF8043D4FF0500080F31188BFF34F8FA2
:10258800BFF36F8F00F070FF4FF0000080F31188E9
:1025980008BC19680868B0E8F04F1EF0100F08BFB3
:1025A800B0EC108A80F30988BFF36F8F704700BFC3
:1025B800F83D002008B5EFF311834FF0500282F385
:1025C8001188BFF36F8FBFF34F8F00F0C1FD18B1B3
:1025D8004FF08052024B1A60002383F3118808BD24
:1025E80004ED00E0064B1A68064BA3FB02129209A1
:1025F800013A054B1A600722043B1A60704700BF76
:102608000C000020D34D621014E000E000B583B048
:10261800314B1A68314B9A4208D14FF0500383F37B
:102628001188BFF36F8FBFF34F8FFEE72A4B1A68ED
:102638002B4B9A4208D14FF0500383F31188BFF314
:102648006F8FBFF34F8FFEE7264B1A78D2B20192F5
:10265800FF221A701B78DBB28DF803309DF8032037
:1026680002F05002204B1A700722204B1A6009E032
:102678001E4B1A68013A1A609DF803305B00DBB202
:102688008DF803309DF8033013F0800FF0D1174B0D
:102698001A68120202F4E0621A60019AD2B2114B6F
:1026A8001A7003F512631A6842F470021A601A6805
:1026B80042F070421A60FFF795FF00220C4B1A6037
:1026C800FFF7E2FE0B4B1A6842F040421A60FFF730
:1026D800CBFEFFF7AFFE00BF00ED00E071C20F4177
:1026E80070C20F4100E400E0343D0020383D002076
:1026F8001400002034EF00E0EFF305830F2B0FD90F
:10270800104A9A5CD2B2104B1B789A4208D24FF00A
:10271800500383F31188BFF36F8FBFF34F8FFEE72A
:102728000A4B1A6802F4E062094B1B689A4208D9FE
:102738004FF0500383F31188BFF36F8FBFF34F8FB0
:10274800FEE77047F0E300E0343D00200CED00E0C8
:10275800383D002010B50446FFF7C4FEA26BE36BBA
:102768009A4201D1012400E00024FFF7DDFE204653
:1027780010BD00BF10B50446FFF7B4FEA36B0BB93C
:10278800012400E00024FFF7CFFE204610BD00BF63
:1027980038B504461546026C3AB903685BBB406815
:1027A80000F0DCFF002363602CE06DB9806804F062
:1027B800A5FBA268236C1344A360626893421CD3F0
:1027C8002368A36000201DE0C06804F097FB226C1A
:1027D8005242E3681344E36021688B4202D2636883
:1027E8001A44E260022D0AD1A36B53B1A36B013BDB
:1027F800A363002006E0002004E0002002E000209F
:1028080000E00020A36B0133A36338BD10B5034675
:10281800026C5AB1C4681444C4604068844201D34D
:102828001868D8600846D96804F068FB10BD00BF76
:1028380010B50446FFF756FE0BE0636A63B104F176
:10284800240000F087FE08B100F020FFA36C013BD4
:10285800A364A36C002BF0DC4FF0FF33A364FFF7F5
:1028680063FEFFF73FFE0BE0236963B104F110003C
:1028780000F070FE08B100F009FF636C013B63646F
:10288800636C002BF0DC4FF0FF336364FFF74CFE02
:1028980010BD00BF38B50D46044640B94FF050038F
:1028A80083F31188BFF36F8FBFF34F8FFEE7FFF7F6
:1028B80019FE2368E06B226C02FB00316160002185
:1028C800A163A360013800FB0233E3604FF0FF33DC
:1028D8006364A36485B92369B3B104F1100000F0FF
:1028E80039FE012810D14FF08052094B1A60BFF30E
:1028F8004F8FBFF36F8F07E004F11000FFF752FD11
:1029080004F12400FFF74EFDFFF70EFE012038BD4D
:1029180004ED00E0F8B50D461746064640B94FF0FD
:10292800500383F31188BFF36F8FBFF34F8FFEE718
:1029380019B101FB00F0013000E000205430FFF72E
:10294800BFFC044668B10DB9206002E000F15403F1
:102958000360E663256420460121FFF79BFF84F8A6
:10296800507044B94FF0500383F31188BFF36F8F51
:10297800BFF34F8FFEE72046F8BD00BFF0B585B026
:102988000E4601921D46044640B94FF0500383F3AA
:102998001188BFF36F8FBFF34F8FFEE719B9036C30
:1029A8001BB9012302E0012300E0002343B94FF0E3
:1029B800500383F31188BFF36F8FBFF34F8FFEE788
:1029C800022D03D1E36B012B02D102E0012300E0C9
:1029D800002343B94FF0500383F31188BFF36F8F7F
:1029E800BFF34F8FFEE700F057FE18B9019B1BB9E4
:1029F800012302E0012300E0002343B94FF0500314
:102A080083F31188BFF36F8FBFF34F8FFEE7002763
:102A1800FFF768FDA26BE36B9A4201D3022D22D126
:102A2800204631462A46FFF7B3FE636A73B104F1C4
:102A3800240000F08FFD012811D14FF080522F4B58
:102A48001A60BFF34F8FBFF36F8F08E038B14FF0B4
:102A580080522A4B1A60BFF34F8FBFF36F8FFFF777
:102A680063FD012048E0019B1BB9FFF75DFD0020D5
:102A780042E01FB902A800F0B3FD0127FFF754FD9B
:102A880000F05EFBFFF72EFD636CB3F1FF3F01D151
:102A980000236364A36CB3F1FF3F01D10023A36457
:102AA800FFF742FD02A801A900F0B0FDF0B92046E9
:102AB800FFF750FEA0B104F11000019900F012FDDB
:102AC8002046FFF7B5FE00F0D5FB0028A0D14FF057
:102AD80080520A4B1A60BFF34F8FBFF36F8F97E78F
:102AE8002046FFF7A5FE00F0C5FB91E72046FFF75B
:102AF8009FFE00F0BFFB002005B0F0BD04ED00E034
:102B08002DE9F0410F4616461D46044640B94FF0E0
:102B1800500383F31188BFF36F8FBFF34F8FFEE726
:102B280019B9036C1BB9012302E0012300E000235B
:102B380043B94FF0500383F31188BFF36F8FBFF38E
:102B48004F8FFEE7022D03D1E36B012B02D102E088
:102B5800012300E0002343B94FF0500383F31188A9
:102B6800BFF36F8FBFF34F8FFEE7FFF7C5FDEFF39E
:102B780011884FF0500383F31188BFF36F8FBFF3B1
:102B88004F8FA26BE36B9A4201D3022D18D12046D6
:102B980039462A46FFF7FCFDA36CB3F1FF3F0AD183
:102BA800636A7BB104F1240000F0D4FC60B16EB11B
:102BB800012030600BE0A36C0133A364012006E020
:102BC800002004E0012002E0012000E0012088F359
:102BD8001188BDE8F08100BFF0B585B00D460192BF
:102BE8001F46044640B94FF0500383F31188BFF3E2
:102BF8006F8FBFF34F8FFEE719B9036C1BB9012222
:102C080002E0012200E0002242B94FF0500383F3B2
:102C18001188BFF36F8FBFF34F8FFEE700F03CFDC5
:102C280018B9019B1BB9012202E0012200E0002231
:102C380042B94FF0500383F31188BFF36F8FBFF38E
:102C48004F8FFEE70026FFF74DFCA36B002B32D019
:102C5800E66820462946FFF7D9FDC7B9A36B013BB3
:102C6800A363236813B900F0D3FD60602369F3B14F
:102C780004F1100000F06EFC012818D14FF08052CA
:102C8800374B1A60BFF34F8FBFF36F8F0FE0E660CB
:102C9800636A63B104F1240000F05CFC38B14FF0C2
:102CA80080522F4B1A60BFF34F8FBFF36F8FFFF720
:102CB8003BFC012051E0019B1BB9FFF735FC0020CC
:102CC8004BE01EB902A800F08BFC0126FFF72CFC94
:102CD80000F036FAFFF706FC636CB3F1FF3F01D151
:102CE80000236364A36CB3F1FF3F01D10023A36405
:102CF800FFF71AFC02A801A900F088FC38BB20469F
:102D0800FFF738FDE8B1236833B9FFF7EBFB6068DC
:102D180000F0D2FCFFF708FC04F12400019900F050
:102D2800E1FB2046FFF784FD00F0A4FA00288AD1D1
:102D38004FF080520A4B1A60BFF34F8FBFF36F8F6B
:102D480081E72046FFF774FD00F094FA7BE7204600
:102D5800FFF76EFD00F08EFA002005B0F0BD00BF51
:102D680004ED00E0F8B50E461546044640B94FF0AC
:102D7800500383F31188BFF36F8FBFF34F8FFEE7C4
:102D880019B9036C1BB9012302E0012300E00023F9
:102D980043B94FF0500383F31188BFF36F8FBFF32C
:102DA8004F8FFEE7FFF7A8FCEFF311874FF05003B2
:102DB80083F31188BFF36F8FBFF34F8FA36BD3B12A
:102DC80020463146FFF722FDA36B013BA363636CEA
:102DD800B3F1FF3F0AD123697BB104F1100000F081
:102DE800B9FB60B16DB1012028600BE0636C013361
:102DF8006364012006E0002004E0012002E00120D5
:102E080000E0012087F31188F8BD00BF0A4B1B685A
:102E18001B680BB9012300E0002323B14FF0FF32F8
:102E2800064B1A607047044B1B68DB68DB685A68FE
:102E3800024B1A60704700BF3C3D0020183E00203E
:102E480010B50446006BFFF78DFA2046FFF78AFAA3
:102E580010BD00BF70B506460D4619B98000FFF7D2
:102E68002FFA054655B15C20FFF72AFA044608B147
:102E7800056304E02846FFF775FA00E0002424B152
:102E8800206BA521B20004F042F8204670BD00BFB7
:102E980070B504461646002306E0CD5CE01880F8BD
:102EA8003450C85C10B101330F2BF6D9002384F8D5
:102EB8004330062E00D90626E662E664002525651D
:102EC800201DFFF77BFA04F11800FFF777FA246159
:102ED800C6F10706A6616462656584F8585070BD3E
:102EE80038B5002406E014200E4B00FB0430FFF731
:102EF80059FA0134062CF6D90B4D2846FFF752FA39
:102F08000A4C2046FFF74EFA0948FFF74BFA0948E2
:102F1800FFF748FA0848FFF745FA084B1D60084BC9
:102F28001C6038BD643D0020203E0020343E002057
:102F3800FC3D0020483D0020483E00203C3D00204C
:102F48005C3D002010B504460E4B1B6858600E4BC4
:102F58001B68984207D20D4B18680A4B1968043150
:102F6800FFF73CFA10BD0A4B1868064B1968043184
:102F7800FFF734FA074B1B689C4201D2054B1C60D3
:102F880010BD00BFF83D0020143E00205C3D00202D
:102F98003C3D0020183E00202DE9F04F83B08B46C1
:102FA800164699460C9DDDF83480824640B94FF0AC
:102FB800500383F31188BFF36F8FBFF34F8FFEE782
:102FC800062D08D94FF0500383F31188BFF36F8F94
:102FD800BFF34F8FFEE710460E99FFF73BFF0446FD
:102FE80000284DD0036B06F18047013F03EB8707AC
:102FF80027F00707009659462A460F9BFFF748FF18
:10300800384651464A46FFF749FA2060B8F1000FA2
:1030180001D0C8F80040FFF765FA254B1A6801325D
:103028001A60244B1B6843B9224B1C60204B1B6859
:10303800012B0CD1FFF754FF09E01F4B1B6833B974
:103048001C4B1B68DB6AAB4201D81A4B1C601B4A3D
:103058001368013313606364E36A012606FA03F018
:10306800174A11680143116003EB83039B0015485D
:103078001844211DFFF7A6F9FFF756FA304601E07C
:103088004FF0FF3001280FD10B4B1B6863B1094B80
:103098001B68DB6AAB4207D24FF080520A4B1A60BA
:1030A800BFF34F8FBFF36F8F03B0BDE8F08F00BF42
:1030B800F43D0020F83D0020403D00201C3E00204B
:1030C8005C3E0020643D002004ED00E000B585B0C2
:1030D8000023009301930293039314481449802218
:1030E800FFF75AFF012814D14FF0500383F31188DA
:1030F800BFF36F8FBFF34F8F4FF0FF320D4B1A6046
:1031080001220D4B1A6000220C4B1A60FFF77EFA61
:1031180009E040B94FF0500383F31188BFF36F8F74
:10312800BFF34F8FFEE705B05DF804FB4934000894
:103138001C790008183E0020403D0020143E002065
:10314800024B1A6801321A60704700BFF03D002038
:10315800F8B53D4B1B68002B69D13C4B1A6801320E
:103168001A601E68C6B93A4B1B681B6843B14FF01A
:10317800500383F31188BFF36F8FBFF34F8FFEE7C0
:10318800334A1168334B186810601960324B1A685B
:1031980001321A60FFF73AFE304B1B689E4203D299
:1031A800002439E0012400E00024294B1B681B6837
:1031B8000BB9012300E0002323B14FF0FF32274B66
:1031C8001A6029E0224B1B68DB68DD686B689E4249
:1031D80002D2224A13601FE02F1D3846FFF718F964
:1031E800AB6A1BB105F11800FFF712F9EB6A012071
:1031F80098401B4A11680143116003EB83039B004D
:10320800184818443946FFF7DDF8EA6A164B1B6878
:10321800DB6A9A42C6D2C8E7134B1B68DB6A03EB2A
:1032280083039B000F4AD358012B06D806E00F4BA7
:103238001A6801321A60002400E001240C4B1B6854
:1032480003B101242046F8BDF03D0020143E0020C3
:103258003C3D00205C3D0020103E0020183E002030
:103268005C3E0020643D0020F83D0020603D0020C9
:10327800603E002038B5344B1B6843B94FF050030B
:1032880083F31188BFF36F8FBFF34F8FFEE7FFF70C
:1032980029F92D4B1A68013A1A601B68002B4BD18B
:1032A8002A4B1B6823BB002449E0294BDB68DC68F8
:1032B80004F11800FFF7ACF8251D2846FFF7A8F819
:1032C800E36A01209840234A11680143116003EB27
:1032D80083039B00204818442946FFF773F8E26AE5
:1032E8001E4B1B68DB6A9A4202D301221C4B1A60F0
:1032F800174B1B68002BD8D11A4B1B6853B90DE02C
:10330800FFF726FF10B10122154B1A60154B1A68FA
:10331800013A1A60134B1B68002BF1D1104B1B6844
:10332800012B0BD14FF080520F4B1A60BFF34F8F18
:10333800BFF36F8F012402E0002400E00024FFF7B0
:10334800F3F8204638BD00BFF03D0020F43D0020D2
:10335800FC3D00205C3E0020643D0020F83D00203C
:10336800603E0020603D002004ED00E010B50446FA
:1033780030B3194B1B6843B14FF0500383F31188E6
:10338800BFF36F8FBFF34F8FFEE7FFF7D9FE134BE5
:103398001B681C44124B18680430FFF739F848B909
:1033A8000F4B1B68DB6A012199400E4B1A6822EA11
:1033B80001021A602046FFF7C5FDFFF75BFF00E03A
:1033C800002038B94FF08052074B1A60BFF34F8F77
:1033D800BFF36F8F10BD00BFF03D0020143E0020EA
:1033E800F83D00205C3E002004ED00E010B51BE035
:1033F800FFF7A6FE0F4B1C68FFF73CFFA4B1FFF7D1
:1034080071F80C4BDB68DC68201DFFF701F80A4BEC
:103418001A68013A1A60094B1A68013A1A60FFF7EC
:1034280083F82046FFF70CFD044B1B68002BDFD107
:1034380010BD00BF483D0020F43D0020443D002061
:1034480008B5FFF7D3FF064B1B68012BF9D94FF0DE
:103458008052044B1A60BFF34F8FBFF36F8FF0E7B2
:10346800643D002004ED00E0194B1B681BB10122EC
:10347800184B1A6070470022164B1A60164B1B68CF
:10348800B3FA83F3DBB2C3F11F0303EB83029200A9
:1034980012498A5842B94FF0500383F31188BFF399
:1034A8006F8FBFF34F8FFEE703EB83039B000B4A3D
:1034B80013445A6852685A6003F108018A4201D1DC
:1034C80052685A605B68DA68054B1A60704700BF3B
:1034D800F03D0020603E00205C3E0020643D00205E
:1034E800F83D002038B50C4640B94FF0500383F33F
:1034F8001188BFF36F8FBFF34F8FFEE7114D296817
:103508001831FEF76BFF28680430FEF781FF40B9D9
:103518002B68DB6A012199400B4B1A6822EA0102E9
:103528001A60B4F1FF3F06D1064B19680748043109
:10353800FEF748FF38BD064B18682044FFF702FD28
:1035480038BD00BFF83D00205C3E0020483E00200A
:10355800143E002038B5C368DC6844B94FF0500306
:1035680083F31188BFF36F8FBFF34F8FFEE704F12A
:1035780018052846FEF74CFF134B1B689BB9251D01
:103588002846FEF745FFE36A012098400F4A116874
:103598000143116003EB83039B000D48184429463F
:1035A800FEF710FF03E00B482946FEF70BFFE26A1F
:1035B800094B1B68DB6A9A4203D90120074B186044
:1035C80038BD002038BD00BFF03D00205C3E002023
:1035D800643D0020FC3D0020F83D0020603E0020B6
:1035E80040B94FF0500383F31188BFF36F8FBFF3D7
:1035F8004F8FFEE7034A12680260034A126842606E
:10360800704700BF103E0020143E002038B50D461C
:10361800044640B94FF0500383F31188BFF36F8F0E
:10362800BFF34F8FFEE741B94FF0500383F3118882
:10363800BFF36F8FBFF34F8FFEE7FEF753FF114BBA
:103648001A682B68B3F1FF3F13D021680E48006851
:10365800814202D0616891420DD96168501A834253
:103668000BD98A1A13442B602046FFF7B9FF0024B0
:1036780004E0002402E0012400E00124FEF754FFE6
:10368800204638BD143E0020103E00200122014B88
:103698001A607047603E0020054B1B6823B1054B3C
:1036A8001B681BB902207047012070470020704733
:1036B800403D0020F03D002038B50446002846D0A3
:1036C800C36A234A1268D26A934240D28369002BA4
:1036D80005DB1F4B1B68DB6AC3F107038361626963
:1036E800E36A03EB83039B001A490B449A4201D116
:1036F800012300E0002333B3251D2846FEF788FE8A
:1037080070B9E26A02EB82039B001249CB583BB9BD
:10371800012303FA02F2104B196821EA02021A6027
:103728000B4B1B68DB6AE362012199400A4A106867
:103738000143116003EB83039B00064818442946A4
:10374800FEF740FE38BD024B1B68DB6AE36238BDFA
:10375800F83D0020643D00205C3E002038B504465A
:10376800002849D0274B1B68984208D04FF05003D7
:1037780083F31188BFF36F8FBFF34F8FFEE7036D9D
:1037880043B94FF0500383F31188BFF36F8FBFF332
:103798004F8FFEE7013B0365C16AC26C91422DD091
:1037A800002B2DD1051D2846FEF732FE70B9E36ABD
:1037B80003EB8302920014498A583AB9012202FAAB
:1037C80003F3124A116821EA03031360E36CE3620E
:1037D800C3F10702A261012404FA03F00B4A11683D
:1037E8000143116003EB83039B00074818442946F3
:1037F800FEF7E8FD204638BD002038BD002038BD62
:10380800002038BDF83D0020643D00205C3E0020CB
:10381800054B1B6823B1044B1B681A6D01321A65EE
:10382800014B1868704700BFF83D002000000000F9
:103838002DE9F84F2DED048B8046894610EE905AFD
:1038480091ED007AB1EE477A81ED007A91ED029A16
:10385800B1EE499A81ED029AD2ED007A27EE277AE5
:1038680081ED007AD2ED016AD1ED017A66EEA77A90
:10387800C1ED017AD2ED026A29EE269A81ED029A0B
:10388800D3ED006A37EE667A81ED007A93ED017A1E
:1038980077EEC77AC1ED017AD3ED027A39EE679AED
:1038A80081ED029A10EE100A02F0B8FF64A3D3E982
:1038B800002303F007F803F0C7FA0446284602F08D
:1038C800ADFF5FA3D3E9002302F0FCFF03F0BCFACD
:1038D8008346204602F0A2FF41EC180B41EC100B86
:1038E80001F05AFA55EC104B19EE100A02F096FF47
:1038F80022462B4602F0E6FF04460D46D9F804A0FE
:10390800B0EE480AF0EE680A01F0E6F957EC106BE1
:10391800504602F083FF32463B4602F0D3FF024690
:103928000B462046294602F019FE03F08DFA82461E
:10393800D9F80060584602F071FF41EC190B41ECD0
:10394800100B01F0C9F955EC104B304602F066FF38
:1039580022462B4602F0B6FF04460D46D9F804B0BD
:10396800B0EE490AF0EE690A01F016FA57EC106B4E
:10397800584602F053FF32463B4602F0A3FF064684
:103988000F46B0EE480AF0EE680A01F005FA304634
:10399800394653EC102B02F095FF02460B462046A1
:1039A800294602F0DDFD04460D46D9F80890B0EE30
:1039B800490AF0EE690A01F0EFF957EC106B484636
:1039C80002F02CFF32463B4602F07CFF06460F46CB
:1039D800B0EE480AF0EE680A01F07EF93046394642
:1039E80053EC102B02F06EFF02460B462046294688
:1039F80002F0B6FD03F028FA06468AF0004002F00D
:103A08000DFF04460D46304602F008FF45EC104B0A
:103A180041EC110B01F018FA51EC100B0AA3D3E991
:103A2800002302F04FFF03F00FFA80F00040C8F8BF
:103A38000000BDEC048BBDE8F88F00BFAFF3008039
:103A48009CC420B07268913FD9CEF753E3A54C408F
:103A5800F8B506468F68486802F0E0FE04460D4651
:103A6800384602F0DBFE45EC104B41EC110B01F03F
:103A7800EBF951EC100B04A3D3E9002302F022FF69
:103A880003F0E2F93060F8BDD9CEF753E3A54C4016
:103A9800F8B50646D1ED007AF1EE677A17EE907A1E
:103AA800D1ED017A27EEA77AD1ED027A67EEA77AEF
:103AB80077EE277A17EE900A02F0B0FE41EC100B71
:103AC80001F0C4F955EC104B384602F0A7FE224627
:103AD8002B4603F021F841EC100B00F041FF51ECAC
:103AE800100B05A3D3E9002302F0ECFE03F0ACF9B8
:103AF8003060F8BDAFF30080D9CEF753E3A54C4052
:103B080030B583B0B5EEC00AF1EE10FA06D52D2314
:103B180000F8013B0139C9B2B1EE400AFDEEC07AA6
:103B280017EE903ADFED0F7A20EE270ABDEEC00AB5
:103B38004FF47A7410EE105A04FB1352092A04D871
:103B48000092094A03F0ECF90AE0632A04D80092CB
:103B5800064A03F0E5F903E00092054A03F0E0F9AC
:103B680003B030BD00007A44247900082C7900089D
:103B780034790008324A92ED005A70EEC50A314B8A
:103B8800C3ED000A60EE810A70EEA11A2E4BD3ED48
:103B9800035A25EE816AD3ED014A76EE646A93ED05
:103BA800024A76EEC46ADFED297A76EEA76A66EEF7
:103BB800816AD3ED007A76EEA76A74EEC64A34EECF
:103BC800466ADFED237A21EE271A35EE811ADFEDFA
:103BD800217A76EEA77A2049C1ED007A86EEA77A97
:103BE8001E4981ED007AC6EE277AC1ED017A70EEA2
:103BF800615A1B49C1ED005A27EE250A67EEA55AFE
:103C080035EE255A82ED005A66EE875A76EEE56A59
:103C1800C3ED006A24EE877A74EEC74AC3ED014A01
:103C280067EEA66A36EE666A83ED026A67EEA44A14
:103C380031EE641A83ED031A30EE210A704700BF93
:103C4800703E00206C3E00207C3E00206F12833ABC
:103C5800A69B443B8FC2F53C643E0020743E002086
:103C6800683E002000B587B006AB002203F8042D9B
:103C78000093012301934FF6FF7202923C21022226
:103C8800FDF7F0F808B1002000E0012007B05DF86A
:103C980004FB00BF10B586B00C4600230493ADF8B2
:103CA800143004AB0093062301934FF6FF7302937D
:103CB8003C2103220123FDF75FF930BB9DF810106A
:103CC8009DF8113043EA01219DF812209DF8133028
:103CD80043EA02239DF814009DF8152042EA0022C9
:103CE80009B207EE101AF8EEC77AC4ED007A12B2DC
:103CF80007EE102AF8EEC77AC4ED017A1BB207EE78
:103D0800103AF8EEC77AC4ED027A06B010BD00BFCB
:103D180070B58CB004460E460022089209920A92A9
:103D28000592069207920CAB112503F8045D0093E7
:103D3800012301934FF6FF7502953C21FDF792F898
:103D4800002849D16420FCF77FFB204608A9FFF72B
:103D5800A1FF0CAB122203F8042D00930123019359
:103D6800029520463C210022FDF77CF8A0BB642088
:103D7800FCF76AFB204605A9FFF78CFF0CAB102265
:103D880003F8042D009301230193029520463C215A
:103D98000022FDF767F8F8B9DDED057A9DED087AA0
:103DA80037EE677ADFED0D7A87EE877A86ED007A4F
:103DB8009DED067ADDED096A36EEC77A87EE877AD9
:103DC80086ED017A9DED077ADDED0A6A36EEC77A4F
:103DD800C7EE877AC6ED027A0CB070BD00401C456C
:103DE80010B586B0044600230493ADF8143006AB32
:103DF800072203F8082D0093042301934FF6FF735D
:103E08000293D02119220123FDF72CF880B9012350
:103E180006AA02F8083D009201934FF6FF7202923B
:103E28002046D0216B22FDF71DF818B1002002E0D2
:103E3800002000E0012006B010BD00BFF0B589B039
:103E48000D4614460023049305930693ADF81C30E1
:103E580004AB00930E2301934FF6FF730293D02116
:103E68003B220123FDF788F8002851D19DF81070F6
:103E78009DF8113043EA07279DF812609DF813302A
:103E880043EA062676429DF814009DF8153043EA69
:103E980000209DF818109DF819300902494219436D
:103EA8009DF81A209DF81B3043EA02229DF81C3029
:103EB8009DF81DC01B025B4243EA0C033FB207EEAC
:103EC800107AF8EEC77AC5ED007A36B207EE106AB6
:103ED800F8EEC77AC5ED017A00B207EE100AF8EEDF
:103EE800C77AC5ED027A09B207EE101AF8EEC77A5A
:103EF800C4ED007A12B207EE102AF8EEC77AC4EDC4
:103F0800017A1BB207EE103AF8EEC77AC4ED027ACE
:103F180009B0F0BD30B58BB0284B1A6B42F00402E3
:103F28001A631A6B02F004020192019A1A6B42F0AA
:103F380080021A631A6B02F080020292029A1A6BCC
:103F480042F001021A631A6B02F001020392039A0B
:103F58001A6B42F002021A631B6B03F0020304930C
:103F6800049B4FF400530593154B069300240794C4
:103F7800144805A9FCF76CFC0C230593022306934F
:103F880007940894072309930F4D284605A9FCF7C1
:103F98005FFC282005212246FCF7F6FB2820FCF7C9
:103FA80025FC60230593012306930794089428466B
:103FB80005A9FCF74DFC0BB030BD00BF003802402E
:103FC80000002110000802400000024008B508481F
:103FD800084B03604FF4E133436000238360C36000
:103FE80003610C2242618361C361FDF70DFE08BDC8
:103FF8007C4000200044004008B50848084B036096
:104008004FF4E133436000238360C36003610C22F3
:1040180042618361C361FDF7F7FD08BD38400020A8
:104028000014014070B584B00E4C0F4B23604FF460
:10403800803363600025A5602561A56165622563FD
:10404800E56001262662E56166612046FCF7AAFA6A
:1040580000950196029520466946FCF7C1FA04B01E
:1040680070BD00BFE43F00200020014008B50948AA
:10407800094B0360094B436000238360C3604FF41E
:104088008042026143618361C3610362FCF75EFEA3
:1040980008BD00BFA83F002000540040A0860100D2
:1040A80070B52DED048B9D4E9D4D9E4C3046294696
:1040B8002246FFF7C3FE30469B49FFF7EBFDFCF7AE
:1040C800BDF99A4E3368C01A07EE900AB8EE678AAF
:1040D800DFED977A88EE278AFCF7B0F930609548CB
:1040E8002946FFF7D5FC944E30462946FFF7B0FC29
:1040F800D4ED009ADFED917AC9EEA79AD4ED018A42
:10410800C8EEA78A94ED029A89EE279A96ED000ADE
:10411800DFED8B7AB4EEE70AF1EE10FA09D5894B98
:1041280093ED007ADFED887AB4EEE77AF1EE10FAD3
:1041380010DCDFED857AB4EEE70AF1EE10FA10DD57
:10414800804B93ED007ADFED7E7AB4EEE77AF1EEFC
:1041580010FA06D57B4B83ED000A7C4B83ED000AF1
:104168000AE0784CF0EE690AB0EE481AD4ED001A6D
:10417800FFF700FD84ED000A724B186802F04EFB51
:1041880041EC100B02F0B0FE5A280FDDF1EE688A00
:104198006F4C684B93ED000AF0EE680AB0EE481ACF
:1041A800D4ED001AFFF7E6FC84ED000A694C2046BE
:1041B8005D49694A694B634D95ED000A644DD5ED3B
:1041C800000AFFF735FB94ED000ADFED5D7AB4EEE7
:1041D800E70AF1EE10FA09D5614B93ED007ADFEDAD
:1041E8005A7AB4EEE77AF1EE10FA10DCDFED567A7F
:1041F800B4EEE70AF1EE10FA10DD594B93ED007AB0
:10420800DFED4F7AB4EEE77AF1EE10FA06D5544BAB
:1042180083ED000A534B83ED000A0AE0504CF0EEA0
:10422800490AB0EE481AD4ED001AFFF7A3FC84ED52
:10423800000A69EE886A454BD3ED007A76EEA76AE4
:10424800C3ED006A28EE887A474BD3ED007A37EE43
:10425800277A83ED007A29EE088A424B93ED006AAB
:1042680038EE068A83ED008ADFED407AF4EEE76ADD
:10427800F1EE10FA06D4DFED3E7AF4EEE76AF1EEDD
:1042880010FA03DD2F4B1A68304B1A60DFED377ACE
:10429800B4EEE77AF1EE10FA06D4DFED357AB4EE33
:1042A800E77AF1EE10FA03DD294B1A682E4B1A60F3
:1042B800DFED2E7AB4EEE78AF1EE10FA06D4DFEDE0
:1042C8002C7AB4EEE78AF1EE10FA03DD244B1A6873
:1042D800244B1A60274B1868FDF7F6FE0146264B5B
:1042E8001860184B1B680360194B1B6843601C4B14
:1042F8001B688360154B1B68C3601B4B1B680361FD
:10430800184B1B6843611D4B18684FF0FF32FDF7CF
:1043180039FF0A20FDF79AFEC5E600BFA83F002036
:104328003C3F0020583F0020983E0020983F002046
:1043380000007A44BC400020C04000200000034335
:104348000000B4C2643F00200000B442483F00208F
:10435800683F002078400020743F002018000020AB
:104368006C3F0020503F00204C3F0020000034C329
:104378000000344328400020543F00202C400020F7
:1043880008B5074C20462021FCF73AFB204640217F
:10439800FCF736FB4FF47A70FDF758FEF1E700BFE3
:1043A800000002402DE9F043BBB05A4D06AC204650
:1043B800594B19680022FDF719FF94E8070085E8B2
:1043C8000700102840F0A180544B19600A68544B2C
:1043D8001A604A68534B1A608A68534B1A60CA6855
:1043E800524B1A600A69524B1A604A69514B1A605B
:1043F800514B1868FDF79EFE504C204630219522FF
:1044080002F085FD00230A930B930C930D930E93F2
:104418000F93109311931293139314931593169368
:104428001793189319931A931B931C931D931E9318
:104438001F932093219322932393249325932693C8
:104448002793289329932A932B932C932D932E9378
:104458002F93309331933293339334933593369328
:10446800379338933993364B93ED000A0AA82021E5
:10447800FFF746FB0DF14809324B93ED000A484619
:104488002021FFF73DFB0DF168082F4B93ED000A43
:1044980040462021FFF734FB22AF2C4B93ED000A56
:1044A80038462021FFF72CFB2AAE294B93ED000A52
:1044B80030462021FFF724FB32AD264B93ED000A4E
:1044C80028462021FFF71CFBCDF80090CDF804808A
:1044D800029703960495204696211F4A0AAB02F0DC
:1044E8001FFD204602F04EFD82B21C4821464FF6C1
:1044F800FF73FDF7B9FB204602F044FD82B218486D
:1045080021464FF6FF73FDF7AFFB0A20FDF79EFD2E
:104518004BE700BF8C3F00202C4000208C3E002041
:10452800883F0020803F0020903E0020703F002000
:10453800943E0020843F002028400020A43E002014
:10454800643F0020683F00206C3F0020C0400020EE
:10455800BC40002078400020A07900087C40002062
:10456800384000202DE9F047214C2046FFF738FC61
:104578002046FFF777FBDFF8A88020464146FFF783
:10458800C7FB6420FBF760FF1A4D204629461A4AEC
:10459800FFF754FCDFF88C9020464946FFF77AFB7A
:1045A800164E30462946FFF773FADFF87CA05046CE
:1045B8002946FFF74DFA124C124F134D2046494633
:1045C8004246124B97ED000AD5ED000AFFF730F985
:1045D800DAF80010396032682A6023680C480360F2
:1045E8000C4801600C490A600C4A1360BDE8F0876A
:1045F800A83F00203C3F0020583F0020BC4000203E
:1046080078400020643F0020683F00201800002008
:104618006C3F0020483F00204C3F0020503F0020C6
:10462800743F0020983E0020C040002070B594B030
:10463800204B1A6C42F080521A641B6C03F08053B2
:104648000193019B1C4B1A6822F4404242F4004239
:104658001A601B6803F440430293029B02240894E7
:1046680001230B9310230C930E9400260F9610939E
:104678004FF4A873119304251295139508A8FCF715
:104688008FFD05230393049405964FF480530693F6
:10469800079603A82146FCF76DFFFDF7EFF8074BD7
:1046A800A3FB00208009FCF7ADF82846FCF7C0F80A
:1046B80014B070BD0038024000700040D34D621045
:1046C80070B59AB0FBF798FEFFF7B0FFFFF722FC32
:1046D800FFF77CFCFFF7A6FCFFF7C8FCFFF78CFC94
:1046E800FFF740FF43F69820FBF7AEFE2C4C15ADC4
:1046F80026460FCE0FC533682B6015A80021FDF79D
:1047080085FC284B186010AD04F114060FCE0FC5B8
:1047180033682B6010A80021FDF778FC224B186045
:104728000BAD04F128060FCE0FC533682B600BA81C
:104738000021FDF76BFC1D4B186008AB04F13C022F
:1047480007CA83E807001846FDF788FC184B18606D
:1047580005AB04F1480207CA83E807001846FDF7CD
:104768007DFC144B186003AB04F1540292E803007B
:1047780083E8030018460021FDF7FCFC0E4B186087
:1047880001AB5C3494E8030083E803001846002179
:10479800FDF7F0FC094B1860FDF732FCFEE700BF9F
:1047A8003C79000830400020C440002034400020FC
:1047B80028400020CC4000202C400020C840002089
:1047C80008B50320FBF7CEFF4FF0FF3000210A4663
:1047D800FBF7DAFF08BD00BF30B587B00268144B9D
:1047E8009A4223D103F58C335A6C42F480725A648E
:1047F8005B6C03F480730093009B03240194029480
:10480800002503950B4801A9FCF722F8132301930F
:1048180002940395084801A9FCF71AF801230193AB
:1048280002940395054801A9FCF712F807B030BDBA
:10483800002001400008024000000240000402403D
:1048480000B587B00268104B9A4219D14FF44073F3
:104858000193122302930123039303230493042354
:1048680005930A480DEB0301FBF7F2FF084B1A6C9E
:1048780042F400121A641B6C03F400130093009BAB
:1048880007B05DF804FB00BF00540040000402407C
:104898000038024000B589B003681D4A934218D118
:1048A8001C4B1A6C42F400321A641B6C03F400337C
:1048B8000193019B0C230393022304930123059383
:1048C8000323069307230793134803A9FBF7C0FFA5
:1048D8001AE0124A934217D10E4B5A6C42F020024A
:1048E8005A645B6C03F020030293029BC02303937A
:1048F80002230493012305930323069308230793B4
:10490800074803A9FBF7A4FF09B05DF804FB00BF43
:1049180000440040003802400000024000140140FA
:104928000008024008B5FBF781FDFDF7ABFC08BDA8
:1049380008B5094B1868FDF7C7FB0146012303605A
:10494800064B18684FF0FF32FDF71CFC4FF400507F
:10495800FCF75CF808BD00BFCC400020C840002030
:104968002DE9F04F55EC104BBD4B25F000469E420B
:1049780083B0A9460EDDBB498E4200F3B38000F038
:10498800AE80B9F1000F40F3F8809FED990B03B0AA
:10499800BDE8F08FB44B9E4200F3C380A3F1DE73F1
:1049A8009E4240F3AA804FF0FF3C22462B46204609
:1049B8002946CDF804C001F085FF02460B46824621
:1049C8008B4601F07FFF8CA3D3E9002306460F46F0
:1049D80001F078FF8AA3D3E9002301F0C1FD324634
:1049E8003B4601F06FFF88A3D3E9002301F0B8FD2F
:1049F80032463B4601F066FF85A3D3E9002301F068
:104A0800AFFD32463B4601F05DFF83A3D3E90023A7
:104A180001F0A6FD32463B4601F054FF80A3D3E9DE
:104A2800002301F09DFD52465B4601F04BFF7EA33B
:104A3800D3E9002382468B463046394601F042FFCF
:104A48007BA3D3E9002301F089FD32463B4601F000
:104A580039FF79A3D3E9002301F080FD32463B46B4
:104A680001F030FF76A3D3E9002301F077FD324649
:104A78003B4601F027FF74A3D3E9002301F06EFD44
:104A880032463B4601F01EFFDDF804C0BCF1FF3F93
:104A980002460B467AD0504659464FEACC0601F0FA
:104AA8005FFD22462B4601F00DFF704F704B3744D7
:104AB8001E44D6E9002301F051FD22462B4601F0A1
:104AC8004DFD02460B46D7E9000101F047FDB9F15B
:104AD800000F55DB41EC100B03B0BDE8F08F002C44
:104AE8003FF44FAF2046294622462B4601F038FDB9
:104AF80041EC100B03B0BDE8F08F55A3D3E90023B8
:104B080010EE100A294601F02BFD0022594B02F045
:104B180069F900283FF447AF45EC104B03B0BDE8F6
:104B2800F08F00F02DF9544B9E4255EC104B3EDCB3
:104B3800A3F550239E4210EE100A294600F3AE80DA
:104B480010EE102A2B4601F00BFD0022494B01F014
:104B580005FD002206460F46204629464FF08043B1
:104B680001F0FEFC02460B463046394601F0D4FF00
:104B78004FF0000C04460D4617E79FED370BB9E7D9
:104B8800024601F1004343EC102BB3E75046594667
:104B980001F0E6FC22462B4601F094FE02460B4645
:104BA8002046294601F0DAFC41EC100BA2E7334B12
:104BB8009E4267DC10EE100A29460022304B01F0B5
:104BC800CDFC002206460F46204629462C4B01F014
:104BD80079FE0022274B01F0C3FC02460B46304603
:104BE800394601F099FF4FF0020C04460D46DCE609
:104BF800182D4454FB21F93F11DA22E33AAD903FD6
:104C0800EB0D76244B7BA93F513DD0A0660DB13FFB
:104C18006E204CC5CD45B73FFF8300922449C23F63
:104C28000D5555555555D53F2F6C6A2C44B4A2BF28
:104C38009AFDDE522DDEAD3F6D9A74AFF2B0B33FF0
:104C4800711623FEC671BC3FC4EB98999999C93F68
:104C58009C7500883CE4377E182D4454FB21F9BF2D
:104C6800FFFF0F440000F07FFFFFDB3FF0790008F3
:104C7800D07900080000F03FFFFFF23FFF7F0340BC
:104C88000000F83F2B4610EE102A00200F4901F0D3
:104C980043FF4FF0030C04460D4686E600220C4BFA
:104CA80001F05CFC002206460F4620462946084BC8
:104CB80001F056FC02460B463046394601F02CFFFF
:104CC8004FF0010C04460D466FE600BF0000F0BF30
:104CD8000000F03FAFF3008000B553EC102B264ADC
:104CE80023F00043934285B022DD244A93420BDD32
:104CF80051EC100B10EE102A0B4601F02FFC41EC82
:104D0800100B05B05DF804FB684600F0F1F900F0FF
:104D1800030001289DED000B9DED021B20D0022809
:104D280011D000B3012001F0E3F951EC100BE6E7D4
:104D38009FED0F1B00F0D0FC51EC100B41EC100B59
:104D480005B05DF804FB00F0C7FC53EC102B10EE27
:104D5800100A03F1004141EC100B05B05DF804FBAB
:104D680001F0C6F9F1E700F0B7FC51EC100BC6E70B
:104D78000000000000000000FB21E93FFFFFEF7F7B
:104D880051EC100B53EC102B21F0004343EC102B8B
:104D9800704700BF0000000000B553EC102B284AF4
:104DA80023F00043934285B029DD264A93420BDD68
:104DB80051EC100B10EE102A0B4601F0CFFB41EC22
:104DC800100B05B05DF804FB684600F091F900F09F
:104DD800030001289DED000B9DED021B1FD002284A
:104DE80019D008B300F078FC53EC102B10EE100A21
:104DF80003F1004141EC100B05B05DF804FB9FED99
:104E08000E1B002001F074F951EC100B41EC100B53
:104E180005B05DF804FB012001F06AF9E4E700F051
:104E28005BFC51EC100BCAE7012001F061F951EC71
:104E3800100BC4E7AFF30080000000000000000082
:104E4800FB21E93FFFFFEF7F00F05EB870B52DED65
:104E5800048BB0EE408AF0EE608A294E8AB000F0EA
:104E68006FFB96F90030B0EE409AF0EE609A01338D
:104E78000FD0B0EE480AF0EE680A01F09DFA40B192
:104E88000024002551EC180B22462B4601F08CFF1C
:104E980038B9B0EE490AF0EE690A0AB0BDEC048BE5
:104EA80070BD184B36780193012200238DED048BD9
:104EB8008DED028B009208936EB9CDE906456846E0
:104EC80001F0A4FA88B1089BA3B99DED060B0AB0BE
:104ED800BDEC048B70BD2046294622462B4601F0C6
:104EE8001BFE022ECDE90601E9D102F001F82123CB
:104EF8000360E8E701F0FCFF089B0360E5E700BFFB
:104F080024000020107A0008F8B5B0EE407AF0EEE0
:104F1800607A53EC112B5642164323F00045724C2D
:104F280045EAD676A64251EC100B45D847420743CE
:104F380021F0004646EAD777A7423DD803F140441E
:104F480004F5801414434BD09C1704F0020456EA6D
:104F5800000744EAD17438D055EA02073BD0624FC3
:104F6800BD424CD0604FBE4235D0751B2D153C2D2F
:104F780041DC002B72DB51EC170B53EC112B01F0C9
:104F8800CBFD41EC100BFFF7FBFEFFF7E9FC51EC02
:104F9800100B012C5DD0022C4CD0002C47D03CA328
:104FA800D3E9002301F0DAFA3BA3D3E9002301F0A7
:104FB800D5FA41EC100BF8BD51EC110B53EC172B43
:104FC80001F0CEFA41EC100BF8BD032CC4D8DFE891
:104FD80004F00B0B0F0C002926DB9FED310BF8BDFD
:104FE800BDE8F840FFF7BCBCF8BD9FED2F0BF8BD3E
:104FF8009FED290BF8BD2AA1D1E90001C9E7AE420E
:1050080031D0032CAED801A757F824F02B50000854
:1050180025500008F94F0008F34F00089FED240BB6
:10502800F8BD9FED250BF8BD9FED250BF8BD41ECB4
:10503800100BF8BD16A3D3E9002301F08FFA02463E
:105048000B4615A1D1E9000101F088FA41EC100BDB
:10505800F8BD01F1004141EC100BF8BD3C358ADA8E
:105068000020002195E7032CB5D8DFE804F00502FD
:105078000B089FED150BF8BD9FED150BF8BD9FEDC7
:10508800160BF8BD9FED160BF8BD00BFAFF30080FF
:10509800075C143326A6A13C182D4454FB21094073
:1050A800182D4454FB21F93F182D4454FB2109C005
:1050B8000000000000000080000000000000000068
:1050C800182D4454FB21F9BF182D4454FB21E9BF86
:1050D800182D4454FB21E93FD221337F7CD902C0EB
:1050E800D221337F7CD902400000F07FAFF30080EB
:1050F8002DE9F04F5BEC10AB994B2BF000479F422A
:1051080091B0804640F38680964B9F4229DCBBF1E4
:10511800000F51EC100B88A3D3E9002340F3A681BC
:1051280001F01CFA904B9F4204460D4600F08A801D
:1051380083A3D3E9002301F011FA02460B46C8E91C
:1051480000232046294601F009FA7DA3D3E900236C
:1051580001F004FA0126C8E90201304611B0BDE8A1
:10516800F08F824B9F4240F38A80814B9F425CDCE8
:105178004FEA2759A9F21649A7EB095351EC100B2E
:1051880019461F4601F038FE01F036FB04460D466D
:1051980022462B4639465046CDE90A4501F0DEF94C
:1051A8000022744B01F08EFB0F46064601F024FEE8
:1051B80001F022FB04460D4622462B46304639466E
:1051C800CDE90C4501F0CAF900226A4B01F07AFBDF
:1051D80000220023CDE90E0101F0DCFD002800F0DB
:1051E8007181002320462946002201F0D3FD0028C2
:1051F80014BF0123022302225F49009201914A460B
:105208000AA8414600F0A8FBBBF1000FC0F24C8190
:10521800064606E00022002388ED000BC0E90223C1
:105228000026304611B0BDE8F08F51EC100B10EE9F
:10523800102A0B4601F092F90026C8E90201C8E9D4
:105248000001EEE740A3D3E9002301F087F940A36A
:10525800D3E9002304460D4601F080F902460B46C7
:10526800C8E900232046294601F078F938A3D3E994
:10527800002301F073F90126C8E90201D1E7FFF71D
:105288007FFD55EC104B10EE100A33A3D3E9002331
:10529800294601F017FB0022384B01F061F901F0B3
:1052A800ABFD064601F0A8FA23A3D3E90023CDE914
:1052B800060101F007FB02460B462046294601F08D
:1052C8004DF91FA3D3E90023CDE90201DDE9060169
:1052D80001F0F8FA1F2ECDE90401DDE9020151DCE5
:1052E800274B721E53F82230BB424BD0DDE9042312
:1052F80001F034F904460D46C8E9004522462B461C
:10530800DDE9020101F02AF9DDE9042301F026F9BB
:10531800BBF1000FC8E9020183DA274601F1004317
:1053280005F100447642C8F80070C8F80440C8F88F
:105338000800C8F80C3074E700004054FB21F93F1E
:105348003163621A61B4D03D0000601A61B4D03D87
:105358007370032E8A19A33B83C8C96D305FE43F7D
:10536800FB21E93F7BD90240FB21F93FFB21394171
:10537800FFFFEF7F00007041987A00080000E03FCF
:10538800187A0008DDE9042301F0E8F83F15C1F3B5
:105398000A53FB1A04460D46102BC8E90045ADDD3B
:1053A8005DA3D3E90023DDE9060101F08BFA044689
:1053B8000D4622462B46DDE9020101F0CFF8CDE982
:1053C8000801DDE90823DDE9020101F0C7F82246FA
:1053D8002B4601F0C3F852A3D3E9002304460D4637
:1053E800DDE9060101F06EFA22462B4601F0B6F817
:1053F800CDE90401DDE90423DDE9080101F0AEF897
:10540800C1F30A53FF1A04460D46312FC8E9004577
:1054180078DD46A3D3E90023DDE9060101F052FA5D
:1054280004460D4622462B46DDE9080101F096F8B0
:10543800CDE90201DDE90223DDE9080101F08EF87A
:1054480022462B4601F08AF83AA3D3E90023044602
:105458000D46DDE9060101F035FA22462B4601F03A
:105468007DF8CDE90401DDE902013FE701F078F8B4
:105478002D4B9F4204460D4626D025A3D3E9002391
:1054880001F06EF802460B46C8E90023204629467B
:1054980001F064F81EA3D3E9002301F061F84FF08E
:1054A800FF36C8E90201BCE6D8F80420D8F80C3069
:1054B80002F1004203F100434642C8F80420C8F84C
:1054C8000C30AEE6032396E613A3D3E9002301F0DC
:1054D80047F813A3D3E9002304460D4601F040F82A
:1054E80002460B46C8E900232046294601F036F853
:1054F8000BA3D3E9002301F033F84FF0FF36C8E9D6
:1055080002018EE69DED087B8DED027BF6E600BF7D
:105518003163621A61B4D03D0000601A61B4D03DB5
:105528007370032E8A19A33BFB21F93F0000002E5C
:105538008A19A33BC14920259A837B39AFF30080A0
:105548002DE9F84353EC102B23F00044240D614D52
:105558002405AC422DED028BB0EE408AF0EE608A55
:10556800194610EE100A00F09480002B74DD1F1508
:105578007DD0A7F2FF37C1F31301FA0741F4801178
:105588005FD4C30F4FF0000C03EB410342007F10C0
:10559800654616204FF400116C189C424FEAD276EB
:1055A8004FEA420202DC1B1B65188C44013806EBEB
:1055B80043034FEA5101EFD1804620264FF00041C6
:1055C80009E023D0D40F013E4FEA510104EB430315
:1055D8004FEA42021ED0AB4201EB0804F1DD04F0B1
:1055E8000049B9F1004F04EB010809D0A9465B1B3B
:1055F800944288BF03F1FF33121B08444D46E1E78C
:10560800B8F1000FF2DB05F10109F0E79442E6D9A1
:105618001D46D7E71A4319D146084FEA6C0101F134
:105628007F511CF0010F01F5001118BF46F000462C
:1056380001EB0753324643EC102BBDEC028BBDE85F
:10564800F883C30F03EB410140009AE7431C2ED0B7
:1056580000F001031844DFE723F000411143ECD0C8
:1056680063BB1F46C10A153F40050029FAD011F453
:1056780080131FD14900CC0203F10103FAD5C3F10D
:105688000102C3F1200420FA04F42143174498408E
:105698006FE751EC100B01F015F953EC182B00F0E3
:1056A8005FFFBDEC028B41EC100BBDE8F8830CF1F9
:1056B800010CB2E7202401220023E4E751EC100B8F
:1056C8000B4600F04BFF02460B4601F025FA41EC71
:1056D800100BB2E70000F07F2DE9F04F57EC106B8C
:1056E8002DED028BB0EE418AF0EE618A27F000487A
:1056F800B8F1795F83B010EE100A39466FDA01F01D
:105708007BFB002800F0F38032463B4630463946A2
:1057180001F0D8F87AA3D3E9002304460D4601F036
:10572800D1F879A3D3E9002300F01AFF22462B46CB
:1057380001F0C8F876A3D3E9002300F00FFF224652
:105748002B4601F0BFF874A3D3E9002300F008FF4B
:1057580022462B4601F0B6F871A3D3E9002300F0E6
:10576800FDFE22462B4601F0ADF86FA3D3E90023D6
:1057780000F0F6FE22462B4601F0A4F882468B463E
:105788002046294600226E4B01F09CF8524680467E
:1057980089465B462046294601F094F853EC182BBD
:1057A80004460D463046394601F08CF802460B4651
:1057B8002046294600F0D2FE02460B46404649469E
:1057C80000F0CCFE02460B4600205E4900F0C6FE03
:1057D80041EC100B03B0BDEC028BBDE8F08F10EE6E
:1057E800102A3B4601F06EF845A3D3E9002304468E
:1057F8000D4601F067F844A3D3E9002300F0B0FE9A
:1058080022462B4601F05EF841A3D3E9002300F0BD
:10581800A5FE22462B4601F055F83FA3D3E9002305
:1058280000F09EFE22462B4601F04CF83CA3D3E93B
:10583800002300F093FE22462B4601F043F83AA3DA
:10584800D3E9002300F08CFE2B46224601F03AF8FB
:105858003D4B984582468B4692DD3C4B98453DDC56
:10586800A8F500130022002036499046994600F01A
:1058780075FECDE90001204629460022304B01F093
:1058880021F842464B4600F069FE5246804689465A
:105898005B462046294601F015F853EC182B0446C0
:1058A8000D463046394601F00DF802460B462046B3
:1058B800294600F053FE02460B464046494600F092
:1058C8004DFE02460B46DDE9000100F047FE41ECC3
:1058D800100B03B0BDEC028BBDE8F08F9FED147B7D
:1058E8004FF000088DED007BDFF86490C3E79FED73
:1058F800120B03B0BDEC028BBDE8F08FAFF3008054
:10590800D43888BEE9FAA8BDC4B1B4BD9EEE213E24
:10591800AD529C804F7E923E9015CB19A001FA3E65
:105928007751C1166CC1563F4C5555555555A53F35
:10593800000000000000E73F000000000000F03F0A
:105948000000E03F0000F03F3233D33F0000E93F62
:105958000000D23FAFF300802DE9F04FADF51B7D7D
:105968001B4CA49E1B4D54F826400A94D41E85FB5C
:105978000465E417C4EBA50424EAE4740C949B467C
:105988000490E34309910C980A990BF1FF3403EB57
:105998004303069402EBC303061B641808931BD445
:1059A800A598344401340DF1880800EB86050027DA
:1059B80009E0E85900F020FF0136A642E8E80201B4
:1059C80007F1040708D0002EF3DA00200021F3E7DE
:1059D800A07B0008ABAAAA2A0A9C002C2BDB0A9CF5
:1059E80074AE22A806EBC40600EBCB0903960DF5AE
:1059F800E478069C002CC0F27781DDF810A04F46B1
:105A080000240025002677E90223FAE8020100F0C5
:105A180059FF02460B462046294600F0A1FD0136F3
:105A28005E4504460D46EED1E8E80245039EB045C2
:105A380009F10809DDD10A9E03960EAC029404EB25
:105A480086040D94039E9AAB4FEAC6094B44002E78
:105A580053E928452BDD0DF1340A72A989440AEB74
:105A6800860A0DF134080022A94B2046294600F089
:105A780029FF01F0C1F900F0BFFE0022A54B064640
:105A88000F4600F01FFF02460B462046294600F04D
:105A980065FD01F0B1F979E9022348F8040F3946A8
:105AA800304600F05DFDD04504460D46DBD145EC9F
:105AB800104B089800F0ACFC55EC104B00224FF04E
:105AC8007F5310EE100A294600F0FCFE41EC100B43
